:02000002B0004C
:1040000000400B0072820B00000006000D0005024C
:08401000040139180000000052
:04401800007C0B001D
:10401C0081F0004102E000BF83F0004330B54FEA6D
:10402C0041044FEA430594EA050F08BF90EA020FDA
:10403C001FBF54EA000C55EA020C7FEA645C7FEA6D
:10404C00655C00F0E2804FEA5454D4EB5555B8BF90
:10405C006D420CDD2C4480EA020281EA030382EA01
:10406C00000083EA010180EA020281EA0303362D93
:10407C0088BF30BD11F0004F4FEA01314FF4801C66
:10408C004CEA113102D0404261EB410113F0004F78
:10409C004FEA03334CEA133302D0524263EB43032F
:1040AC0094EA050F00F0A780A4F10104D5F1200ECD
:1040BC000DDB02FA0EFC22FA05F2801841F1000128
:1040CC0003FA0EF2801843FA05F359410EE0A5F1FC
:1040DC0020050EF1200E012A03FA0EFC28BF4CF02D
:1040EC00020C43FA05F3C01851EBE37101F00045E3
:1040FC0007D54FF0000EDCF1000C7EEB00006EEBF0
:10410C000101B1F5801F1BD3B1F5001F0CD3490879
:10411C005FEA30004FEA3C0C04F101044FEA4452D0
:10412C0012F5800F80F09A80BCF1004F08BF5FEA57
:10413C00500C50F1000041EB045141EA050130BD37
:10414C005FEA4C0C404141EB0101013C28BFB1F549
:10415C00801FE9D291F0000F04BF01460020B1FA94
:10416C0081F308BF2033A3F10B03B3F120020CDA67
:10417C000C3208DD02F1140CC2F10C0201FA0CF045
:10418C0021FA02F10CE002F11402D8BFC2F1200CAA
:10419C0001FA02F120FA0CFCDCBF41EA0C01904060
:1041AC00E41AA2BF01EB0451294330BD6FEA0404A9
:1041BC001F3C1CDA0C340EDC04F11404C4F1200294
:1041CC0020FA04F001FA02F340EA030021FA04F3A6
:1041DC0045EA030130BDC4F10C04C4F1200220FAFD
:1041EC0002F001FA04F340EA0300294630BD21FA3B
:1041FC0004F0294630BD94F0000F83F4801306BF01
:10420C0081F480110134013D4EE77FEA645C18BFF4
:10421C007FEA655C29D094EA050F08BF90EA020F8B
:10422C0005D054EA000C04BF1946104630BD91EA83
:10423C00030F1EBF0021002030BD5FEA545C05D186
:10424C004000494128BF41F0004130BD14F58004C5
:10425C003CBF01F5801130BD01F0004545F0FE4139
:10426C0041F470014FF0000030BD7FEA645C1ABF6E
:10427C00194610467FEA655C1CBF0B46024650EAA5
:10428C00013406BF52EA033591EA030F41F40021D1
:10429C0030BD00BF90F0000F04BF0021704730B557
:1042AC004FF4806404F132044FF000054FF000012C
:1042BC0050E700BF90F0000F04BF0021704730B5ED
:1042CC004FF4806404F1320410F0004548BF4042C2
:1042DC004FF000013EE700BF42004FEAE2014FEA17
:1042EC0031014FEA02701FBF12F07F4393F07F4FF2
:1042FC0081F06051704732F07F4208BF704793F0F5
:10430C007F4F04BF41F40021704730B54FF4607407
:10431C0001F0004521F000411CE700BF50EA01020A
:10432C0008BF704730B54FF000050AE050EA0102B3
:10433C0008BF704730B511F0004502D5404261EB23
:10434C0041014FF4806404F132045FEA915C3FF464
:10435C00D8AE4FF003025FEADC0C18BF03325FEA01
:10436C00DC0C18BF033202EBDC02C2F1200300FAB2
:10437C0003FC20FA02F001FA03FE40EA0E0021FAD7
:10438C0002F11444BDE600BF10F8012B11F8013BFB
:10439C00012A28BF9A42F7D0D01A7047034613F867
:1043AC00012B002AFBD1181A0138704709480A4919
:1043BC00884208B505D0094A824202D0121A03F08D
:1043CC0063FA0748074A0021121A03F085FA0148DC
:1043DC0008BD00BF74E50320CC810B00ECE5032085
:1043EC00ECE50320FCE7032070B5074E074C02F008
:1043FC0049F9A41BA4080025AC4200D170BD56F8A5
:10440C00043B98470135F7E77C810B00A8810B0032
:10441C0000F028BA08B500F0EBF9BDE8084002F04E
:10442C00E9B800F097BD00F095BD00F09BBD000011
:10443C0008B5034A03490C2000F07AFCFEE700BFE4
:10444C00AD4A0B00147C0B000078B0FA80F04009E8
:10445C007047012303707047704700000A4B10B57A
:10446C000446036001F0C6F9214601F010FC02F08D
:10447C00BBFC02F0ABFC2046044B40F8043B01F0C3
:10448C008FFA204610BD00BF9C7C0B00847C0B0077
:10449C0010B50446FFF7E2FF20462421FFF7C5FFC5
:1044AC00204610BD0EB400B58CB00DAA4FF0200CF8
:1044BC0052F8041B0392CDE900120023016804AAF0
:1044CC001E20CDE904C300F043FC0CB05DF804EBF6
:1044DC0003B0704770B53E4E86B0142500241320EF
:1044EC0003F0E8F830600444322001F0D3FF013DC2
:1044FC00F5D107EE904AF8EEE77AB3EE047AC7EE00
:10450C00876A344B344ADFED357A86EEA77ADFEDD5
:10451C00347A27EE277ADFED337A83ED007AB4EE26
:10452C00E77AF1EE10FA304B30D5002111601960AA
:10453C00002202A90320029200F022FC002843D1A1
:10454C00029C0CB1236923B9284A29490A2000F09E
:10455C00EFFB0C23039301AB04930423059303AAF1
:10456C00236901212046984770BBBDF8043007EE43
:10457C00903AFBEECC7A1F4B1F48C3ED007A01F04A
:10458C00FBFF1E4B83ED000A06B070BD0BDBDFEDAD
:10459C001C7AB4EEE77AF1EE10FA04D519491160E1
:1045AC00194A1A60C4E7DFED196ADFED197AE7EEF4
:1045BC00267A9FED187A77EEC77AC7EE876AC2ED36
:1045CC00007AC3ED006AB3E7FFEE007AD3E700BFD1
:1045DC002CE6032030E60320F8E5032000F07F45AD
:1045EC0033335340CDCC4C3DFCE50320AD4A0B009E
:1045FC00297C0B00F0E5032000E60320F4E5032002
:10460C00CDCCCC3D6F12433F9A99993E66669E4144
:10461C00E78C68BE5C8F224070B5ACB000F082FCB9
:10462C000446C0B900F076FC204600F049FA2E4E44
:10463C000546002000F044FA401B61F1000186425F
:10464C0074EB010305D300F06DFC10B900F05AFCBB
:10465C00EFE700F067FC00F065FC002842D0234B2C
:10466C001868FFF739FECDE90601214B1868FFF7F2
:10467C0033FECDE904011F4B1868FFF72DFECDE981
:10468C0002011D4B1868FFF727FE1C4ACDE90001FB
:10469C0080210CA800F076FC194B0CA81968099124
:1046AC00FFF77CFE174A12788DF808203C21002277
:1046BC00CDE90021034609990CAA0AA802F068F971
:1046CC000B9C7CB16368013B63605BB9236820463B
:1046DC009B689847A368013BA3601BB923682046DD
:1046EC00DB6898472CB070BD1FBF0200F4E50320B7
:1046FC00F0E50320F8E5032030E603204F7C0B00A7
:10470C0074E50320ECE5032030B58BB005AB0493C6
:10471C00012310228DF8243003230025ADF8163028
:10472C003149089502231046CDE90655ADF8142001
:10473C008DF8183003F092F8044600284FD0102260
:10474C00294603F0C9F8294B23600423A380089B56
:10475C00A3604EF66023E36008949DF82430ABB15F
:10476C00049BDB6813B39A880E2A06D09B68F9E782
:10477C009B68DBB19A880E2AFAD11A7B042AF7D1EE
:10478C00DA89012A02D042F00102DA8101A804A9D7
:10479C0000F00EFD019808B100F0E4FB089808B396
:1047AC0084680C21FFF741FE2046F8E70E491420DF
:1047BC0003F054F8044678B11422002103F08CF86D
:1047CC000A4B23600E23A380089BA360042323734E
:1047DC000123E3810894D9E78DF82400D6E78DF8FE
:1047EC002400BAE70BB030BDE47F0B0010000300CF
:1047FC0008B542F2107001F04DFEFFF76BFEFFF7AB
:10480C000BFF42F2107001F045FEBDE80840FFF7C7
:10481C007BBF10B5202488B022460021684603F0E7
:10482C005BF801238DF80430FF238DF80F308DF8E1
:10483C0011304FF46173ADF8083040F62873ADF8C1
:10484C0006304FF4FA73ADF80A30002141F20E0332
:10485C0068468DF80540ADF80C3000F0CFFA08B082
:10486C0010BD000038B502F0BFFA4FF4165102F03B
:10487C00A9FA002000F024F940F6B83504460020CF
:10488C0000F01EF9001B61F10001A84271F1000358
:10489C0007D202F0A9FA02F09CFA10B900F032FB30
:1048AC00EDE702F0A1FA02F094FA04490448FFF78C
:1048BC00F9FDBDE83840FFF7ACBF00BF657C0B00CD
:1048CC0064E6032070B5D0E900531426044606FBB9
:1048DC000356AE4204D0284600F0DCFC1435F8E751
:1048EC00206800F03FFB204670BD8842F8B50446B6
:1048FC000D46164616D9904215D2A2F11406751A19
:10490C00A1F114072C44B7421CD02CB131462046DF
:10491C0000F029FD337C2374304600F0BBFC143EC0
:10492C00143CF0E70ED0B5420CD02CB129462046F1
:10493C0000F019FD2B7C2374284600F0ABFC1435D9
:10494C001434F0E7F8BD2DE9F0410023C0E9003341
:10495C0083604F689F4204460E4623DD4FF01408D7
:10496C0008FB07F000F0F6FA0546D8B1D4E90012BE
:10497C0008FB0212FFF7B9FF206800F0F3FA25607C
:10498C00A760D6E9007308FB0378B84508D0394610
:10499C00284600F002FD3B7C2B7414371435F4E7E9
:1049AC00736863602046BDE8F0810000F0B5224BCF
:1049BC00224C8DB001221A700025CDE900550295CC
:1049CC0002F012FA6946064603A8FFF7BCFF274619
:1049DC0003A906A8FFF7B7FF194B47F8043B06A934
:1049EC0009A8FFF7B0FF09AA1E21384601F032FAD8
:1049FC0009A8FFF767FF06A8FFF764FF114B2360B8
:104A0C0003A82662FFF75EFF0F4B236002F0ECF960
:104A1C004FF4165102F0D6F900F0ECFE214601F0ED
:104A2C00EFF86846FFF74EFF084829460DB0BDE881
:104A3C00F04001F053BD00BFECE5032008E6032075
:104A4C00847C0B00087E0B009C7C0B0000E6032092
:104A5C0008B5024B1B689B68019308BD68020300F4
:104A6C0008B5024B1B68DB68019308BD68020300A4
:104A7C0008B5024B1B685B68019308BD2C02030050
:104A8C0008B5024B1B681B6B019308BD2C0203007D
:104A9C0008B5024B1B685B68019308BD1802030044
:104AAC0008B5024B1B68DB68019308BD18020300B4
:104ABC0008B5024B1B685B69019308BD1802030023
:104ACC0008B5024B1B68DB6D019308BD180203008F
:104ADC0008B5024B1B685B6C019308BD48020300D0
:104AEC0008B5024B1B689B6C019308BD4802030080
:104AFC0008B5024B1B68DB6C019308BD4802030030
:104B0C0008B5024B1B685B6D019308BD480203009E
:104B1C0008B5024B1B685B69019308BD6402030076
:104B2C0008B5024B1B689B68019308BD3C0203004F
:104B3C0008B5024B1B68DB68019308BD3C020300FF
:104B4C0008B5024B1B681B69019308BD3C020300AE
:104B5C0008B5024B1B685B69019308BD3C0203005E
:104B6C0008B5024B1B689B69019308BD3C0203000E
:104B7C0008B5024B1B68DB69019308BD3C020300BE
:104B8C0008B5024B1B681B6A019308BD3C0203006D
:104B9C0008B5024B1B689B6A019308BD3C020300DD
:104BAC0008B5024B1B68DB6A019308BD3C0203008D
:104BBC0008B5024B1B681B6C019308BD3C0203003B
:104BCC0008B5024B1B689B69019308BD28020300C2
:104BDC0008B5024B1B68DB69019308BD2802030072
:104BEC0008B5024B1B681B6A019308BD2802030021
:104BFC0008B5024B1B685B6A019308BD28020300D1
:104C0C0008B5024B1B689B6A019308BD2802030080
:104C1C0008B5024B1B68DB6A019308BD2802030030
:104C2C0008B5024B1B681B6B019308BD28020300DF
:104C3C0008B5024B1B685B6B019308BD280203008F
:104C4C0008B5024B1B681B6C019308BD28020300BE
:104C5C0008B5024B1B689B6C019308BD280203002E
:104C6C0008B5024B1B68DB6C019308BD28020300DE
:104C7C0008B5024B1B681B6D019308BD280203008D
:104C8C0008B5024B1B68DB69019308BD30020300B9
:104C9C0008B5024B1B681B6A019308BD3002030068
:104CAC0008B5024B1B681B68019308BD4C0203003E
:104CBC0008B5024B1B685B68019308BD4C020300EE
:104CCC0008B5024B1B689B68019308BD4C0203009E
:104CDC0008B5024B1B681B69019308BD4C0203000D
:104CEC0008B5024B1B685B69019308BD4C020300BD
:104CFC0008B5024B1B689B69019308BD4C0203006D
:104D0C0008B5024B1B68DB69019308BD4C0203001C
:104D1C0008B5024B1B681B6A019308BD4C020300CB
:104D2C0008B5024B1B689B6A019308BD4C0203003B
:104D3C0008B5024B1B685B6B019308BD6002030056
:104D4C0008B5024B1B681B6D019308BD6002030084
:104D5C0008B5024B1B685B6D019308BD6002030034
:104D6C0008B5024B1B68DB6E019308BD60020300A3
:104D7C0008B5024B1B681B6F019308BD6002030052
:104D8C0008B5034B1B68D3F89830019308BD00009D
:104D9C006002030008B5024B1B685B68019308BDF9
:104DAC002002030008B5024B1B685B69019308BD28
:104DBC002002030008B5024B1B68DB6C019308BD95
:104DCC002002030008B5024B1B685B6D019308BD04
:104DDC002002030008B5034B1B68D3F888300193FD
:104DEC0008BD00002002030008B5034B1B68D3F874
:104DFC009430019308BD00002002030008B5034B5A
:104E0C001B68D3F8A830019308BD000020020300F2
:104E1C0008B5034B1B68D3F8AC30019308BD0000F8
:104E2C002002030008B5024B1B685B68019308BDA8
:104E3C004002030008B5024B1B689B68019308BD38
:104E4C004002030008B5024B1B68DB68019308BDE8
:104E5C004002030008B5024B1B681B69019308BD97
:104E6C004002030008B5024B1B685B69019308BD47
:104E7C004002030008B5024B1B689B69019308BDF7
:104E8C004002030008B5024B1B68DB69019308BDA7
:104E9C004002030008B5024B1B681B6A019308BD56
:104EAC004002030008B5024B1B681B6B019308BD45
:104EBC004002030008B5024B1B685B6B019308BDF5
:104ECC004002030008B5024B1B681B6C019308BD24
:104EDC004002030008B5024B1B685B6C019308BDD4
:104EEC004002030008B5024B1B685B6D019308BDC3
:104EFC004002030008B5024B1B689B6D019308BD73
:104F0C004002030008B5024B1B689B68019308BD67
:104F1C004402030008B5024B1B68DB68019308BD13
:104F2C004402030008B5024B1B685B69019308BD82
:104F3C004402030008B5024B1B681B6A019308BDB1
:104F4C004402030008B5024B1B68DB6B019308BDE0
:104F5C004402030008B5024B1B681B68019308BD93
:104F6C001C02030008B5024B1B685B68019308BD6B
:104F7C001C02030008B5024B1B689B68019308BD1B
:104F8C001C02030008B5024B1B68DB69019308BDCA
:104F9C001C02030008B5024B1B685B6A019308BD39
:104FAC001C02030008B5024B1B68DB6A019308BDA9
:104FBC001C02030008B5024B1B681B6B019308BD58
:104FCC001C02030008B5024B1B68DB6B019308BD88
:104FDC001C02030008B5024B1B681B6C019308BD37
:104FEC001C02030008B5024B1B685B6C019308BDE7
:104FFC001C020300002240681146FFF74BBF002241
:10500C0040681146FFF756BF40680022FFF74ABFC1
:10501C004068002281F00101FFF734BF0023406893
:10502C001A461946FFF726BF002340681A46194650
:10503C00FFF718BF002240681146FFF70BBF002294
:10504C0040681146FFF7F6BE406800220221FFF7C8
:10505C00F9BE002340681A46FFF7E4BE024B032258
:10506C005A60024A1A60704734E60320C07C0B0079
:10507C000B6803604B68436013B15A6801325A6085
:10508C00704738B5046805467CB16368013B6360C2
:10509C005BB9236820469B689847A368013BA360D3
:1050AC001BB923682046DB689847284638BD10B5E5
:1050BC00044608462170FFF7E3FD00236360204699
:1050CC0010BD002240681146FFF7E4BE0022406884
:1050DC001146FFF7EFBE40680022FFF7E3BE4068C1
:1050EC00002281F00101FFF7CDBE002340681A4673
:1050FC001946FFF7BFBE002340681A461946FFF752
:10510C00B1BE002240681146FFF7A4BE00224068E1
:10511C001146FFF78FBE406800220221FFF792BEB6
:10512C00002340681A46FFF77DBE0000024B0622A2
:10513C005A60024A1A6070473CE60320047D0B005B
:10514C0010B58368044613B10322014698472046E4
:10515C0010BD10B50446006818B1FFF703FF00231B
:10516C00236010BD38B50C460546FFF7F2FF54B16D
:10517C002088FFF7EFFE286028B122882146BDE881
:10518C00384002F081BB38BD38B5B1F904308380AA
:10519C00D1F80630C0F806304B8943810C460546E1
:1051AC00FFF7D7FF236813B12B600023236038BDB2
:1051BC00F0B52B4D0B7D04468BB00846AF1D002B74
:1051CC0036D00B681B79002B32D0264B049300226F
:1051DC0002A90430CDE90222FFF71AFEDDF80E30E9
:1051EC00C5F8063000B2BDF81230ADF80C00A8803E
:1051FC000299BB802846FFF7B5FF02A8FFF7A9FF6D
:10520C0000232360A380A37123814FF6FF73638176
:10521C00B5F90430A380D5F80630C4F80630BB8845
:10522C00296863812046FFF79DFF20460BB0F0BD37
:10523C0000262023CDE902360B4B009302AA3346FD
:10524C000A493220FFF77CFD064B054802964FF6C3
:10525C00F26202A9CDE90323FFF796FFCDE700BF69
:10526C0044E603200000FFFF477D0B00407D0B0050
:10527C00054B02221A60054B054A9A600020C3E9CF
:10528C000000FFF787BD00BF50E6032044E6032073
:10529C000000FFFF10B504460068FFF763FE2046D0
:1052AC0010BD10B50446006808B1FFF75BFE002383
:1052BC00C4E90133236010BD38B504460D460068BF
:1052CC000131FFF757FE10B1C4E90005012038BDCC
:1052DC0010B50368044623B143688B4201D3012007
:1052EC0010BD2046FFF7E8FF0028F9D0A368002B7B
:1052FC00F5D122681370F2E737B50D4611460192CD
:10530C000446FFF7E5FF019A28B92046FFF7C9FFCD
:10531C00204603B030BDA2602946206802F0B4FAE2
:10532C002268A3680021D154F2E738B5054600681D
:10533C000C4670B16A688B689A4208D3096831B11F
:10534C0002F017FBA368AB600023A36038BDFFF726
:10535C0009FE23682B6063686B60A368AB60002355
:10536C00C4E90033F1E710B50023C0E9003304466B
:10537C0083600373FFF7D9FF204610BD884210B538
:10538C00044605D00B682BB18A681946FFF7B4FFA9
:10539C00204610BDFFF785FFFAE710B50023044641
:1053AC00C0E9003383600373FFF7E8FF204610BDAC
:1053BC0010B54368013B0446436063B903689B68BE
:1053CC009847A368013BA3602BB923682046DB6890
:1053DC00BDE81040184710BD70B5D0E90053044625
:1053EC0005EB0316AE4204D02846FFF753FF1035E9
:1053FC00F8E72068FFF7B6FD204670BD13B50B46E5
:10540C000246D0E900016C4684E8030093E80300EF
:10541C0082E8030094E8030083E8030002B010BDA7
:10542C00024800230360FFF753BB00BF54E6032080
:10543C0010B5044680680368DB689847E368184435
:10544C00E06010BDF8B506460D468F180024BD422D
:10545C000CD0336815F8011B9B6830469847031E27
:10546C0001DB1C44F3E7002C08BF1C462046F8BDAA
:10547C00704710B510210446FEF7D7FF204610BD2B
:10548C0013B50446084659B10191FEF787FF23680E
:10549C000199DB680246204602B0BDE8104018476F
:1054AC0002B010BD03689B68184730B58BB0002361
:1054BC00012A8DF8243098BF0A2209AC0D46B1FBA5
:1054CC00F2F101FB125303F0FF03092B94BF3033AD
:1054DC003733DBB2AA4204F8013DEFD92146FFF77E
:1054EC00CFFF0BB030BD10B50446FFF7E1FAE0601A
:1054FC00236820465B699847002808DAFFF7D8FA3A
:10550C00E368C01AA3689842F2D34FF0FF3010BD85
:10551C002DE9F04107460C468E180D46B542A5EB19
:10552C00040807D03846FFF7DEFF031E02DB05F840
:10553C00013BF3E74046BDE8F0817047084611B1E6
:10554C000B685B681847704770477047704738B5F1
:10555C0004460D4600682E2102F001FA2368C31A96
:10556C002B6023B1037803B1013023682060184607
:10557C0038BD10B504210446FEF757FF204610BD78
:10558C0010B504210446FEF750FF204610BDFFF76E
:10559C00AFBA08B5FEF7F8FEB0FA80F0400908BDC6
:1055AC00704710B50C4601F01FFC844210D002F07D
:1055BC00B3F8844205D102F0AFF8BDE8104001F019
:1055CC00B6BE2CB1236820465B68BDE81040184776
:1055DC0010BD13B5044608460191FEF7DFFE019994
:1055EC000246204602B0BDE8104001F0EBBD13B5F9
:1055FC00044608460191FEF7D1FE23680199DB6849
:10560C000246204602B0BDE81040184707B50368B3
:10561C008DF80710DB6801220DF10701984703B0E4
:10562C005DF804FB2DE9F74FD0E900844FF0140A24
:10563C0000930AFB04F4184BA41017465C43454630
:10564C00002C21DD66100AFB06F005EB00093A463A
:10565C00B9F804B0285801915F4528BF5A4602F0AA
:10566C00AEF9002801994FF001030BD15F4503D12E
:10567C00009A13703446E3E7FCD9A61B09F1140514
:10568C00013EF7E7F9DBF5E7A5EB08050248AD109D
:10569C00684303B0BDE8F08FCDCCCCCC7FB50369AB
:1056AC00057E019103B3F9B1002600F10C040396B9
:1056BC0003A901A8FFF74BFF0146A8B10DF10B039D
:1056CC00039A8DF80B602046FFF7ACFF9DF80B306A
:1056DC0053B12368142404FB0034083434F9023C1D
:1056EC00002BA8BFDDB2E3E7284604B070BD0EB4B2
:1056FC00F0B58CB000AF07F14405044655F8042B07
:10570C007A602B46202107F11000FD60FFF742FC68
:10571C001F287A681AD900F1080323F007036E4694
:10572C00ADEB030D411C2B466846FD60FFF732FCC8
:10573C00021E04DD23686946DB6820469847B5469F
:10574C003037BD46BDE8F04003B070470028F7D0B5
:10575C0023680246DB6807F1100120469847EFE703
:10576C0010B5094C2378BFF35B8FDB0709D42046B7
:10577C00FEF76AFE28B12046FEF76BFE034802F0E6
:10578C0074F8034810BD00BF5CE6032055550B00B0
:10579C0078E5032010B5094C2378BFF35B8FDB074A
:1057AC0009D42046FEF750FE28B12046FEF751FEE4
:1057BC00034802F05AF8034810BD00BF60E603200E
:1057CC00AD550B007CE5032038B500250446C0E937
:1057DC000055C0E904558560856140F8245FFFF7EA
:1057EC0077F9FFF7BDFFE061FFF7D4FF2573206267
:1057FC00204638BD10B50A4C2378BFF35B8FDB070E
:10580C000CD42046FEF720FE40B10648FFF7DCFF23
:10581C002046FEF71EFE044802F027F8014810BD92
:10582C0058E6032068E60320795D0B00024A034921
:10583C0003480023FFF79CBA5D5B0B00E95A0B0091
:10584C00695A0B0000231A4619461846FFF790BAFE
:10585C0037B58D6804466846FFF70AFC6A46294648
:10586C00204601F0CFFB01A8FFF70BFC204603B04C
:10587C0030BD37B5CD6804466846FFF7F9FB6A467C
:10588C002946204601F09AFB01A8FFF7FAFB2046B7
:10589C0003B030BD37B50D6904466846FFF7E8FB29
:1058AC006A462946204601F032FB01A8FFF7E9FBC6
:1058BC00204603B030BD000070B58AB00D460146DD
:1058CC0004A8FFF7C5FF144E04A801F0B3FBE8B120
:1058DC0004A96846FFF7CDFF02983146FFF759FE41
:1058EC00044610B12C1E18BF012401A8FFF7C9FBF8
:1058FC00002CE9D004A96846FFF7CCFF684601F0FC
:10590C003CFB286001A8FFF7BCFBDDE705A8FFF70F
:10591C00B8FB0AB070BD00BF887D0B0037B50C46D4
:10592C00204613491546FEF72FFD50B901F05CFADD
:10593C004FF4165101F046FA03B0BDE8304001F0C7
:10594C0053BA0C492046FEF71FFD78B94FF4165395
:10595C0001A928460193FFF7AFFF01F0DDFE019985
:10596C0001F0E2FC01F0D8FE03B030BD0020FBE7F3
:10597C008D7D0B00947D0B0070B5D0E9005314267F
:10598C00044606FB0356AE4205D005F10800FFF7AE
:10599C00F3FF1435F7E72068FFF7E4FA204670BDF3
:1059AC0010B504460C30FFF7E7FF2046FFF714FD57
:1059BC00204610BD10B5044B044640F8043BFFF7DD
:1059CC00EFFF204610BD00BF847C0B0010B50446D1
:1059DC00FFF7F0FF20462421FEF727FD204610BDDF
:1059EC0010B5034B03600446FFF7E4FF204610BDDF
:1059FC00207E0B0010B50446FFF7F2FF2046242151
:105A0C00FEF713FD204610BD0A6802604A6842602A
:105A1C000022C0E9022210B502618C688460CC6857
:105A2C00C4600C698A60CA6004610A6110BD0022FE
:105A3C00C0E9002210B582600C6804604C684460B8
:105A4C008C680A604A6084608A6010BD10B5036877
:105A5C0004461868FFF754F8204610BD2DE9F04FA6
:105A6C0087B0804603931C4B5B68C3F308038946DD
:105A7C0016466BB9FFF7BEFE044600F12403406ADC
:105A8C000593FFF784FD237B2BB105A8FFF7DEFF01
:105A9C0007B0BDE8F08F01232373D4E900535FFAFC
:105AAC0089F905EB830AAA4512D055F8047B3146D7
:105ABC00381DFFF7F3FD8145F5D33B68039A00923F
:105ACC00D3F808B04A46334641463846D847EAE749
:105ADC0000232373D9E700BF00ED00E02DE9F74F59
:105AEC009B461A4B5B68C3F30803804689461646EF
:105AFC006BB9FFF77FFE044600F12403406A019363
:105B0C00FFF745FD237B2BB101A8FFF79FFF03B0E7
:105B1C00BDE8F08F01232373D4E90053F6B205EBF3
:105B2C00830A55450ED055F8047B5946381DFFF7AE
:105B3C00B5FD8642F5D33B684A46DB68414638469C
:105B4C009847EEE700232373DEE700BF00ED00E08B
:105B5C002DE9F341164B5B68C3F3080305460F466A
:105B6C001BBBFFF747FE00F124030446406A019378
:105B7C00FFF70DFDD4E90063462406EB8308B0451E
:105B8C0009D101A8FFF762FFA542B4BF0020012094
:105B9C0002B0BDE8F08156F8040B39460430FFF72B
:105BAC007DFD8442A8BF0446E9E70020F0E700BF72
:105BBC0000ED00E0F8B5D0E901539D4204460E46D5
:105BCC000DDB6F1C002F006804DDB900FFF7D2F964
:105BDC0018B9F8BDFFF7C6F900202060A760276848
:105BEC00626807EB85019200A2EB8502081D01F0AB
:105BFC0059FE47F825606368013363600120E8E7CC
:105C0C0037B500F124030446406A01930D46FFF7B3
:105C1C00BEFCD4E9003203EB8202934219460BD04E
:105C2C000968A94203F10403F7D101A8FFF70EFF9D
:105C3C000025284603B030BD29462046FFF7BAFFA1
:105C4C0005460028F1D06368012B01D1FFF7EEFD6A
:105C5C0001A8FFF7FBFEECE770B50446D0E90002A3
:105C6C000B4600EB820282420FD001461D6851F8B0
:105C7C00046BAE4207D1521A01F014FE6368013B6B
:105C8C006360012070BD0846EDE70020FAE71FB500
:105C9C0000F124030446406A01910393FFF777FC5B
:105CAC0001A92046FFF7D8FF18B163680BB9FFF7BD
:105CBC00C9FD03A8FFF7CAFE04B010BD70B5D0E94A
:105CCC0004561823044603FB0656AE4215D005F1C4
:105CDC0010012046FFF7C0FF63680BB9FFF7B2FD58
:105CEC00E06929690368DB689847696919B1206A1A
:105CFC000368DB6898471835E7E7D4E9045318269E
:105D0C0006FB0356AE4204D02846FFF7C3FA1835FB
:105D1C00F8E70023636170BD73B50446FFF792FD8D
:105D2C0004F12403606A0193FFF731FC2046FFF76E
:105D3C00C5FF01A8FFF78AFE606A08B1FEF7D0FE26
:105D4C00D4E90453182606FB0356AE4204D0284669
:105D5C00FFF7A0FA1835F8E72069FFF703F9206878
:105D6C00FFF700F9204602B070BD00000148FFF7B4
:105D7C00D3BF00BF68E603208842F8B504460D4641
:105D8C00164615D9904214D2A2F11406751AA1F137
:105D9C0014072C44B7421AD01CB131462046FFF7E9
:105DAC0033FE06F10800FFF7E7FD143E143CF1E763
:105DBC000DD0B5420BD01CB129462046FFF724FE6E
:105DCC0005F10800FFF7D8FD14351434F1E7F8BDE0
:105DDC008842F8B504460D46164614D9904213D2A3
:105DEC00A2F11006751AA1F110072C44B74218D075
:105DFC001CB131462046FFF7B6FA3046FFF74AFA97
:105E0C00103E103CF2E70CD0B5420AD01CB129462A
:105E1C002046FFF7A8FA2846FFF73CFA1035103455
:105E2C00F2E7F8BD70B50E1E054611DD3001FFF727
:105E3C0091F8044658B1D5E9001201EB0212FFF7B4
:105E4C00C7FF2868FFF78EF82C60AE60012070BD8C
:105E5C000024F6E72DE9F04F904695B0002303910E
:105E6C00D8F804100A9346229942C0E90033C0E9DD
:105E7C000233C0E90433CDE908330446027623DC4F
:105E8C00D8E90057142303FB0757AF423BD02946F0
:105E9C000BA8FFF768FA0BA90FA8099EFFF763FA86
:105EAC00DDE9091399421BDA089B099A03EB0616E4
:105EBC0003EB0212314606F11000FFF789FFEEB931
:105ECC00099B0133099311E008A8FFF7ABFF0028E9
:105EDC00D6D108A8FFF780FA204615B0BDE8F08FA0
:105EEC00013108A8FFF79EFF0028DDD10FA8FFF7AE
:105EFC00D1F90BA8FFF7CEF91435C6E70FA9304638
:105F0C00FFF731FADCE70026CDE90B660D964FF072
:105F1C001409DDE908239E427CDA3301D358069339
:105F2C000BB90136F5E70023079309FB06F302933F
:105F3C000BAD07A906A8FFF70AFB82460028F0D094
:105F4C004FF000038DF817300146079A0DF1170337
:105F5C002846FFF767FB9DF817700190002F4AD178
:105F6C00BDF81C30ADF84030CDE911774FF6FF731A
:105F7C00CDF83CA0ADF842301397D5E901329342ED
:105F8C0017DB03F1010ABAF1000F30DD09FB0AF04F
:105F9C00FEF7E0FF834660B3D5E9001209FB02125D
:105FAC00FFF7EAFE2868FEF7DDFFC5F800B0C5F87C
:105FBC0008A02B68019A09FB023A6A68514609FB52
:105FCC0002320AF11400FFF7D7FEBAF1000F03D02A
:105FDC000FA95046FFF718FD6B6801336B6011A8D1
:105FEC00FFF7CAFC3FB10BA8FFF7C6FC71E7BB4635
:105FFC00D8E70127F3E7019B2D6809FB0355069BA6
:10600C001B782BB9D8F80030029A13441B7CEB8018
:10601C0008358EE72168226062686360A368099284
:10602C000A9A0A93E368A2600B9A0B932369E260C5
:10603C000C9A0C93636922610D9A0D93039B089142
:10604C0062612376CFE70000F0B5044687B00D46B9
:10605C002646194668461746FEF775FC0B4B46F864
:10606C00043B694603A8FEF76EFC03AA394630468A
:10607C00FFF7F0FE03A8FEF725FC6846FEF722FCAE
:10608C00034B23602046256207B0F0BD847C0B00D7
:10609C00087E0B00F0B50F4685B01D490A9C3846AA
:1060AC0016461D46FEF770F9C0B9A4B1294601A8E1
:1060BC00FFF7BDFC1749242001F0D0FB054630B199
:1060CC0001AB32462146FFF7BFFF134B2B6001A8F3
:1060DC00FEF7F8FB2C46204605B0F0BD0F493846BC
:1060EC00FEF752F990B9002CF5D0294601A8FFF71C
:1060FC009EFC0849242001F0B1FB05460028E6D09F
:10610C0001AB32462146FFF79FFFE0E70024E2E7B0
:10611C009C7D0B00E47F0B00207E0B00A07D0B0010
:10612C00014B024A1A60704764E60320B17D0B00F4
:10613C002DE9F047089DD0F8209004460E461746EE
:10614C00984600F051FE81454CD02B79190704D5A7
:10615C006A6954492046FFF7CAFAB8F1000F0DD00E
:10616C005B212046FFF752FA41462046FFF73FFAE3
:10617C0023684D49DB680222204698472B79DA07C1
:10618C0023D5D5F808802F21404601F02CFC08B10E
:10619C0000F1010841462046FFF729FA2B799B07AD
:1061AC0008D53A212046FFF731FAEA683F492046E4
:1061BC00FFF79DFA2A79236812F0040FDB6814BFED
:1061CC003B493C490222204698472B7958071DD55C
:1061DC0029690B461A4613F8010B60B1202808D127
:1061EC001946F7E7344801F092F90028ADD0BDE824
:1061FC00F0872828EED12368521ADB68204698478E
:10620C0023682E49DB680422204698470021384633
:10621C00FEF7A6FD01462046FFF7E9F9236825495C
:10622C00DB680222204698471EB131462046FFF714
:10623C00DEF92B7913F0300F2CD023682049DB6862
:10624C000222204698472B79D9060AD523681D4986
:10625C00DB68072220469847AA691B492046FFF7AE
:10626C0046FA2B799A0611D5DB0605D52368104919
:10627C00DB6802222046984723681449DB682046D5
:10628C000A229847E9692046FFF7B1F95D212046BB
:10629C00FFF7BCF923680E49DB6820460222BDE8F3
:1062AC00F0471847B57D0B00BC7D0B00BF7D0B0084
:1062BC00C27D0B00C77D0B0008E70320C57D0B00DA
:1062CC00CA7D0B00CD7D0B00D57D0B00D87D0B005E
:1062DC00E37D0B002DE9F0410446076A0D46164696
:1062EC0000F082FD874207D0206A036832462946B7
:1062FC00DB68BDE8F0411847034801F008F90028B5
:10630C00F2D0BDE8F08100BF08E703202DE9F0438F
:10631C0085B0D0F820900C9C05460F4690461E4642
:10632C0000F062FD814505D1494801F0F0F80028E4
:10633C0040F08A802B6A474A00924FF00009684669
:10634C00CDE902398DF8049000F09DFE4946404697
:10635C00FEF706FD404980460122684600F022FF08
:10636C004146FFF736F93FB13C490122684600F03F
:10637C0019FF3946FFF72DF93EB13949012268461C
:10638C0000F010FF3146FFF724F92379DF070ED513
:10639C00A6682F21304601F026FB00B1461C31497E
:1063AC000122684600F0FEFE3146FFF712F9237910
:1063BC009E0707D52C490222684600F0F3FEE168DF
:1063CC0000F06EFE2379580714D5266933461F4614
:1063DC0013F8012B2AB1202A01D11E46F7E7282AEF
:1063EC00F5D122490222684600F0DCFEBA1B314688
:1063FC0000F0E8FE2379190707D51D4901226846EC
:10640C0000F0D0FE616900F05DFE2379DA0607D555
:10641C0018490422684600F0C5FEA16900F040FE50
:10642C0023799B0607D514490622684600F0BAFE6C
:10643C00E169FFF7CEF8684600F00FFE286A0F49B5
:10644C0003680222DB68984705B0BDE8F08300BF03
:10645C0008E70320787D0B00927D0B00E67D0B0096
:10646C0077800B00E87D0B00EA7D0B00ED7D0B00C7
:10647C00F07D0B00F27D0B00F77D0B00E37D0B0034
:10648C00024B1A68024B1A60704700BF80E503206C
:10649C0090E603200021FEF785BC0000014B002292
:1064AC009A60704794E60320090941EA001107EE4F
:1064BC00901A9FED030AF8EEE77A87EE800A704790
:1064CC0000004844006800F0CABF10B504460160E3
:1064DC0002710AB1FFF7F6FF204610BD13B5044652
:1064EC00019101F097F9019A01462046FFF7EDFF63
:1064FC00204602B010BD006800F0BABF2DE9F04193
:10650C00044686B00D4617461E46FFF7DBFF0023F8
:10651C003622CDE90123206805930A224FF00108A9
:10652C0001A9CDE9038200F07CFF206803682946AD
:10653C009B6898472068414600F08DFF054640B1A6
:10654C006FF09F052046FFF7D6FF284606B0BDE842
:10655C00F08102232068029301A900F049FF022870
:10656C00EED1206803685B6998473870206803682F
:10657C005B6998473070E5E707B500238DF8063066
:10658C008DF807300DF106020DF107030221FFF71C
:10659C00B5FF40B99DF807109DF8060003B05DF8F3
:1065AC0004EBFFF781BFBFEE000A03B05DF804FBFC
:1065BC00014B1860704700BF84E5032008B50B4BF6
:1065CC0043B100F011FC03681B699847002801DDFA
:1065DC00AFF30080064B43B101F09EF803681B69D2
:1065EC009847002801DDAFF3008008BD00000000D3
:1065FC000000000008B5FFF7E1FFFEF759FA014B68
:10660C00186008BD34E703200548064A064908B55A
:10661C00121A01F039F9054B054A1A6008BD00BF82
:10662C0000F4032004F4032044820B0000F4032044
:10663C001E1C279A07B5002300931A466FF07701AA
:10664C00FEF7D2FB03B05DF804FB000007B54388EE
:10665C000A2B08D0502B0BD1094B1B684BB103B044
:10666C005DF804EB1847FFF7E5FF03B05DF804FB9A
:10667C00002300931A466FF07701FEF7B5FBF4E7A1
:10668C00A8E6032010B512480021FEF7ABFC114B15
:10669C001A68114B9A42114B0CBF012200221A703E
:1066AC0001D0FFF7B1FFFEF7F3F9044601F01CF936
:1066BC000B4B13B12046AFF3008000210848FEF7C6
:1066CC0041FCBDE8104007480021FEF783BB00BF2A
:1066DC00BD650B0000F403201E1C279AA4E60320C2
:1066EC000000000059660B0070470020704710B581
:1066FC0010210446FDF799FE204610BD08B5FFF7A2
:10670C00F6FF08BD30B500224FF69C740260848001
:10671C008D888C800C68858004600A6030BD10B553
:10672C0004460068FEF71EFC204610BD38B5C46850
:10673C00F4B12378022B03D104F10C00FFF7EFFF27
:10674C00656835B12846FEF7FBFC10212846FDF79D
:10675C006CFEA56835B12846FEF7F2FC10212846E0
:10676C00FDF763FE20461421BDE83840FDF75DBE01
:10677C0038BD0B6803604B68436013B15A68013233
:10678C005A60704737B5044668460D46FFF7F1FF6F
:10679C00009B019A23606260002301A8019300937F
:1067AC00FEF76FFC35B1281DFEF76BFC082128465F
:1067BC00FDF73BFE204603B030BD826810B50AB928
:1067CC0001F050F8BDE81040C368184708B50068E0
:1067DC0000F11001FFF7F1FF08BD826810B50AB98E
:1067EC0001F040F8BDE81040C368184708B50068D0
:1067FC0000F11001FFF7F1FF08BD000038B50023D0
:10680C000446036010200D46FDF70BFE28B1012352
:10681C00C0E90133024B0360C5602060204638BDDF
:10682C00847E0B007FB50546ADF804100026694642
:10683C0002A80096FFF766FF1420FDF7F2FD044650
:10684C0048B1022303700123C0E90166437002A919
:10685C000C30FFF757FF2846214640F8044BFFF752
:10686C00CDFF02A8FFF75BFF6846FFF758FF2846ED
:10687C0004B070BD38B5002383608B6804460D46A8
:10688C002BB102229847EB68E360AB68A36020460B
:10689C0038BD0000F0B589B004686846FFF732FFD8
:1068AC004FF00203D4E84F2F002A03D1C4E8413F34
:1068BC000029F7D125D104F10C0569462846FFF7CC
:1068CC0021FFBFF35B8F01236370002004F10803E9
:1068DC00BFF35B8F53E8006F43E80002002AF9D145
:1068EC00BFF35B8F6EB1FEF765FA78B1294630467F
:1068FC00FFF763FF3046FEF723FC10213046FDF70F
:10690C0094FD6846FFF70BFF09B0F0BD314602A8B5
:10691C00FFF7B0FFE068B4F9105008B101F032F89D
:10692C0006901020ADF81C50FDF77BFD0546E8B134
:10693C00002787601820FDF774FD044688B10146D6
:10694C00876002A8FEF75AFD049BA268A360059B12
:10695C00049206A9E268E36004F110000592FFF7C7
:10696C00D1FE084BEB60084B2C60AB6006A8FFF720
:10697C00D6FE02A8FEF7E4FB002229460348FEF7E8
:10698C0021FAB7E7D9670B00756A0B0041730B004E
:10699C002DE9F0438DB004469DF858800E461746FD
:1069AC009946FEF7BFFA40B96FF0D1012046FFF7C8
:1069BC0039FF20460DB0BDE8F083149BCDF828902C
:1069CC0014200025CDE9085507900B93FDF729FD00
:1069DC00014618B1C0E901550570457004A8039132
:1069EC00FFF70CFF1F4B08930820FDF71AFD054617
:1069FC0010B103A9FFF7BDFE07AB0093159A0995DB
:106A0C005FFA88F339463046FEF794FAB8B9039B1F
:106A1C005B7803F0FF0293B94FF69C7305A903A8AA
:106A2C000592ADF81830FFF735FF05A8FFF777FE94
:106A3C0005A80999FFF7A6FE06A8FEF722FB03A9F5
:106A4C0005A8FFF796FE059B069A2360626000235B
:106A5C0006A806930593FEF714FB04A8FEF711FB9A
:106A6C00A7E700BF396B0B00012AF8B5054603D127
:106A7C000B6803600020F8BD022A10D0032AF9D15C
:106A8C000468002CF6D004F11000FFF748FE2046F5
:106A9C00FEF756FB18212046FDF7C7FCEAE7182045
:106AAC000E68FDF7BEFC044650B13146FFF7E2FE1E
:106ABC003069B6F9147008B100F064FF2061A78248
:106ACC002C60D7E738B5002383608B6804460D46ED
:106ADC002BB102229847EB68E360AB68A3602046B9
:106AEC0038BD012A70B5044603D10B680360002041
:106AFC0070BD022A0CD0032AF9D10468002CF6D000
:106B0C002046FEF71DFB14212046FDF78EFCEEE718
:106B1C0014200E68FDF785FC054620B13146FFF7C1
:106B2C00D1FF337C2B742560E1E70000F0B589B010
:106B3C0004460D4601A81146FFF724FEA4B124B269
:106B4C001DB1284600F01EFF054601A803A90395B8
:106B5C00ADF81040FFF79EFE03A8FFF7E0FD02A87A
:106B6C00FEF78FFA09B0F0BD019D0123D5E84F2F38
:106B7C00002A03D1C5E8413F0029F7D1EFD12B738F
:106B8C00BFF35B8F6B702B1DBFF35B8F53E8006FF4
:106B9C0043E80042002AF9D1BFF35B8F002EDED010
:106BAC002046FEF707F9074660B105F10C013046A7
:106BBC00FFF713FE3046FEF7C3FA10213046FDF7FF
:106BCC0034FCCCE7314603A8FFF77CFF2B7B8DF818
:106BDC001C301020FDF725FC0546D0B18760142031
:106BEC00FDF71FFC044678B18760014603A8FEF749
:106BFC0005FC059BA268A360069B0592E268E36016
:106C0C009DF81C3006922374064BEB60064B2C60EF
:106C1C00AB6003A8FEF794FA002229460348FEF75E
:106C2C00D1F8C7E7F9670B00EF6A0B0041730B0053
:106C3C00704710B518210446FDF7F7FB204610BD30
:106C4C00F0B5037D062B8DB00E4600F104074FF016
:106C5C00000412D000F1080515F8011D0A22304677
:106C6C00FEF723FCAF42044419D0002CF4D02E21A3
:106C7C003046FEF717FC0444EEE72F236A463946EC
:106C8C000A208DF80040FDF743FF6846FDF786FBB0
:106C9C0033680246DB68694630469847044620460E
:106CAC000DB0F0BD10B5054B0446112240F8043B65
:106CBC00002100F011FE204610BD00BFA07E0B008D
:106CCC000346074A10B543F8042B01F1100251F8A2
:106CDC00044B43F8044B9142F9D10A781A7010BD59
:106CEC00A07E0B0010B59DF8084044EA032343EA4C
:106CFC00024242EA016104234160037510BD0000A9
:106D0C0007B5064B0360CB7800938B784A780978EB
:106D1C00FFF7E8FF03B05DF804FB00BFA07E0B009B
:106D2C00417470477047704708B50021007CFDF72F
:106D3C00DFFF40EAE07008BD08B50121007CFDF7DB
:106D4C00D7FF40EAE07008BD08B5007CFDF7C8FF2E
:106D5C0020EAE07008BD08B5007CFDF7B9FF20EA19
:106D6C00E07008BD13B50446007C0191FDF7B8FF37
:106D7C000028019901DC607C20B1207CFDF7C0FF6C
:106D8C0020EAE07002B010BD007CFDF7C1BF10B569
:106D9C0014210446FDF749FB204610BD10B54FF4F5
:106DAC007A73044608460021C4E90113044B23609E
:106DBC000123207463741146FDF772FF204610BD49
:106DCC00B47E0B00007C0022FDF772BF007CFDF747
:106DDC0077BF007CFDF7A4BF10B514220446002138
:106DEC0000F07AFD204610BD10B50F4C88B003A8FA
:106DFC00FFF7F2FF2178BFF35B8F11F001010FD188
:106E0C0020460191FDF720FB019948B103AA0748E0
:106E1C00FFF7C4FF2046FDF71CFB054800F025FDDD
:106E2C00024808B010BD00BFACE60320B0E603205A
:106E3C00316D0B0000F11003012213F8101C012915
:106E4C00184608D153F8041C02EB4102013A03F135
:106E5C001003F2D17047022904BF53F8041C5218D6
:106E6C00F4E70EB4F0B588B000AF07F1340510218B
:106E7C0055F8042B7A6004462B467818FD60FEF713
:106E8C0089F80F287A681AD900F1080323F0070350
:106E9C006E46ADEB030D411C2B466846FD60FEF7BC
:106EAC0079F8021E04DD236869469B6820469847E2
:106EBC00B5462037BD46BDE8F04003B0704700280A
:106ECC00F7D0236802469B6807F1100120469847CB
:106EDC00EFE738B50B6803604D6843689D42044684
:106EEC0008D015B16B6801336B60606808B1FEF7B0
:106EFC005FFA656038BD07B503688DF807109B68AD
:106F0C0001220DF10701984703B05DF804FB0B4615
:106F1C001146002210B5C0E90022044683600BB96B
:106F2C00204610BDFFF7D5FFFAE78368EBB11A785E
:106F3C00032A1AD8DFE802F00417021B0520704759
:106F4C0002685B685268D05C2D2812D0A0F1300327
:106F5C00092B0ED974280ED066280CD0A0F16E0324
:106F6C005842584170470620704700207047042053
:106F7C007047032070470220704710B50446FFF796
:106F8C00D4FF02280ED0C31EDBB2012B14D822680A
:106F9C00A36850685B68BDE810400A2200211844C1
:106FAC0000F0B8BD2268A36852685B68D05CA0F1A1
:106FBC0074035842584110BD0020FCE738B500233B
:106FCC00C0E9003304460E48C4E90203A9B10B78AA
:106FDC00032B06D08BB9136858684B68C35C6E2BB7
:106FEC0007D013684D6858688B6828445B1BA060F9
:106FFC00E36011462046FFF76CFF204638BD00BF0A
:10700C00E57D0B0038B500250B46C0E90055C0E9FD
:10701C000255C0E90455044611464BB11A78012AB1
:10702C0006D103F11002DB6882604361FFF751FF68
:10703C00204638BD10B54369044663B18068E060F2
:10704C00013B1030A0602061636113B1FFF7F2FEC9
:10705C00A060012000E0184610BD10B57D2104464B
:10706C00FFF749FF01232371204610BD08B50379B2
:10707C00012B02D0022B04D008BD2C21FFF73BFFC3
:10708C00FAE73A21FAE710B50446FFF7EFFF20467E
:10709C007B21FFF730FF00232371204610BD000039
:1070AC0013B504460191FFF7E1FF2368019ADB68F1
:1070BC0003492046984701232046237102B010BD96
:1070CC00BF7D0B0013B504460191FFF7CFFF23687A
:1070DC00019ADB6803492046984701232046237117
:1070EC0002B010BDE07E0B002DE9F0470D462221C9
:1070FC0090460446FFF7FFFEDFF8A490A8442F4605
:10710C004745BA463DD017F8016B222E06D05C2EAF
:10711C0004D0304600F0B0FB0028F1D12368AAEB74
:10712C0005029B682946204698475C212046FFF7BC
:10713C00E2FE0D2E0AD8072E1CD9A6F10803052B4A
:10714C0018D8DFE803F00D0F11171315222E01D0FC
:10715C005C2E0FD131462046FFF7CDFE3D46CFE7E2
:10716C006221F8E77421F6E76E21F4E76621F2E775
:10717C007221F0E723683246DB684946204698477F
:10718C00ECE7BD4205D023687A1B9B682946204654
:10719C00984722212046FFF7AEFEBDE8F08700BFDE
:1071AC00E37E0B0013B50446CDE90021FFF75EFF2B
:1071BC002046DDE90021FFF797FF022320462371CB
:1071CC0002B010BD13B50446CDE90021FFF74EFF08
:1071DC002046DDE90021FFF787FF012320462371BC
:1071EC0002B010BD002240681146FDF733BE0022EC
:1071FC0040681146FDF74EBE002240681146FDF76F
:10720C0059BE40680022FDF74DBE4068002281F057
:10721C000101FDF737BE002340681A461946FDF7F9
:10722C0029BE002340681A461946FDF71BBE0022F2
:10723C0040681146FDF7FEBD406800220221FDF7B3
:10724C0001BE002340681A46FDF7ECBD084B10B593
:10725C00282422461846002100F03EFB054B0480F2
:10726C004FF0FF32426004225A60034A1A6010BD8C
:10727C00CCE60320C4E60320F47E0B007047417477
:10728C00704708B5007CFDF783FC20EAE07008BD70
:10729C0008B5007CFDF754FC20EAE07008BD08B589
:1072AC00007CFDF75DFC40EAE07008BD08B5007C91
:1072BC00FDF74EFC40EAE07008BD007CFDF758BCC1
:1072CC0037B5457C04462DB1207C03B0BDE8304079
:1072DC00FDF72EBC007C0191FDF75AFC00280199AA
:1072EC00F2DC284603B030BD10B514210446FDF77E
:1072FC009CF8204610BD000010B54FF47A7304467C
:10730C00084611460022C4E90123044B23600123E3
:10731C0020746374FDF74CFC204610BD387F0B00C5
:10732C00007C0023FDF73CBC0022FFF7F9BF007C7A
:10733C00FDF7F6BB10B5836804460BB900F092FA62
:10734C00C3689847A3681BB103222146204698477F
:10735C0020461021BDE81040FDF767B87047F8B51E
:10736C00064615460C468F18BC4206D0336814F8F6
:10737C00011B9B6830469847F6E72846F8BD007C11
:10738C000022FDF72DBC007C0021FDF731BC007CF8
:10739C000021FDF735BC007C0021FDF739BC007CD9
:1073AC000021FDF73DBC10B514210446FDF73DF856
:1073BC00204610BD38B5044615464FF47A730022AA
:1073CC00C4E90123094B2174084623602946FDF7C3
:1073DC0037FCBF3008D16B69DB0705D56868FDF752
:1073EC00C1FDE868FDF7BEFD204638BD6C7F0B0083
:1073FC007FB500221823CDE90022ADF800300B78C0
:10740C008DF804304B680293CB6803930B7A04938A
:10741C00007C0B6905936946FDF72AFC07B05DF803
:10742C0004FB7FB500234A680292CDE90033CA6899
:10743C00039218230A7AADF800300B7804920A698B
:10744C000592007C8DF804306A461946FDF7B8FBAE
:10745C0007B05DF804FB007C0022FDF7B9BB08B552
:10746C000021007CFDF7F4FBB0FA80F0400908BD68
:10747C0008B50021007CFDF7F3FBB0FA80F0400961
:10748C0008BD0000054BFF210022C3E900120120BA
:10749C006421C3E902011A61704700BFF4E60320BE
:1074AC00002340681A46FDF7BDBC4068002202214B
:1074BC00FDF7C8BC002240681146FDF7BBBC00229A
:1074CC0040681146FDF7C6BC002340681A461946B1
:1074DC00FDF7C8BC002340681A461946FDF7CABC24
:1074EC0040680021FDF7EEBC40680021FDF7F2BCBE
:1074FC004068002281F00101FDF7C4BC4068002205
:10750C00FDF7D0BC002240681146FDF7D3BC002229
:10751C0040681146FDF7BEBC40680021FDF7EABC8F
:10752C002DE9F04395B014460D460746FFF7BAFB1C
:10753C0000211C220DA8009100F0CEF940230C93E1
:10754C0020466B460CAA0021FDF78AFA0446002857
:10755C004BD1024601216868FDF77CFC0221804674
:10756C0022466868FDF776FC009E81462146002E77
:10757C003BD0002939D17368022B03D00A2B11D0D0
:10758C00F669F4E7B8F1000FFAD0716906A8043176
:10759C0007ADFFF7B5FB0FCD3C1D0FC42B68237057
:1075AC004146EDE7B9F1000FEAD07469102201A849
:1075BC0000F092F906238DF8143001AD04F10803A4
:1075CC001834186859682A4603C20833A342154672
:1075DC00F7D101A906A807ADFFF772FB0FCD3C1D33
:1075EC000FC42B6823704946CAE70098FDF730FAA0
:1075FC00384615B0BDE8F083033803289ABF024B18
:10760C0053F8200001487047907F0B0008E70320D7
:10761C0008B500224068FDF765FCBDE80840FFF79F
:10762C00EBBF0000024B034A1A6000225A607047FD
:10763C0008E70320A87F0B00232813B502D90020EC
:10764C0002B010BDA0F10B03022B1AD8174C2178F5
:10765C00BFF35B8F11F001010BD120460191FCF7B8
:10766C00F3FE019928B11248FDF721FD2046FCF7E5
:10767C00F0FE0F4B1878FDF70BFB0028DFD1012033
:10768C00DEE7012809D800F0A1F80021007CFDF705
:10769C00CFFA80F00100C0B2D2E709380128EED849
:1076AC0000F03AF8007CFDF76BFAF2E710E70320E4
:1076BC0014E703200D2810B504469CBF0E34A4B269
:1076CC002046FFF7B9FF50B103212046FDF7D0F952
:1076DC00032804D12046BDE81040FDF7D1B90020A5
:1076EC0010BD704738B5044614252A46002100F019
:1076FC00F3F825804025074925812846258200F08E
:10770C00AFF804496060284600F0AAF8E060204613
:10771C0038BD00BFE47F0B0030B50E4D2978BFF3A8
:10772C005B8F11F0010487B011D12846FCF78CFE59
:10773C0068B101A8FFF7D6FF01AA21460648FFF75A
:10774C00DBFD2846FCF785FE044800F08EF8024865
:10775C0007B030BD1CE7032020E70320EF760B00B9
:10776C007047704738B50A4B0360012304464361E8
:10777C000849202000F074F8202560600549A560B8
:10778C00284600F06DF8C4E90305204638BD00BF5B
:10779C0018000100E47F0B0038B50A4B036001238D
:1077AC00044643610849202000F05AF82025606007
:1077BC000549A560284600F053F8C4E903052046A6
:1077CC0038BD00BF18000100E47F0B0030B50E4D32
:1077DC002978BFF35B8F11F0010487B011D12846D3
:1077EC00FCF732FE68B16846FFF7BCFF6A462146DB
:1077FC000648FFF7DFFD2846FCF72BFE044800F097
:10780C0034F8024807B030BD38E7032040E70320C6
:10781C006D770B0010B50E4C2378BFF35B8FDB0735
:10782C0086B011D42046FCF70FFE68B16846FFF70E
:10783C00B3FF6A4601210748FFF7BCFD2046FCF761
:10784C0008FE054800F011F8024806B010BD00BF54
:10785C003CE7032054E703206F770B00FCF7E1BDF6
:10786C00FCF7E1BD08B5FDF79DFB002301461A4668
:10787C00184600F059B90000024B1844407800F04B
:10788C009700704779800B000A44914200F1FF3356
:10789C0000D1704710B511F8014B03F8014F91421C
:1078AC00F9D110BD884210B501EB020402D9844213
:1078BC00234607D8431EA14208D011F8012B03F828
:1078CC00012FF8E7024401468A4200D110BD13F89B
:1078DC00014D02F8014DF7E702440346934200D1F3
:1078EC00704703F8011BF9E738B5104B1D68AB6BFB
:1078FC000446B3B91820FDF72DFB0246A86320B946
:10790C000B4B0C484221FDF765FB0B490B4BC0E9B7
:10791C0000130B4B83600B23838100210120C2E9F0
:10792C000401AB6B00221C615A6138BD84E5032055
:10793C00E57F0B00FC7F0B000E33CDAB34126DE6F4
:10794C00ECDE0500C9B2034610F8012B1AB18A42CD
:10795C00F9D118467047002918BF0023F9E710B574
:10796C000446FFF7EFFF18B92046FCF717FD20443B
:10797C0010BD034611F8012B03F8012B002AF9D195
:10798C0070470000024B0146186800F003B800BFB6
:10799C0084E5032037B5044608460D46FCF7FEFC8B
:1079AC00421C114620460192FDF704FB044618B117
:1079BC00019A2946FFF768FF204603B030BD10B589
:1079CC007AB103460139841813F8010B11F8012F11
:1079DC00904201D1A34201D1801A10BD0028F3D1ED
:1079EC00FAE71046F9E738B503460C4669B9BDE825
:1079FC003840FFF7A7BF431C054621461846FFF742
:107A0C00A1FF0028F7D1284638BD0025F5E7000076
:107A1C00012B2DE9F04701D0242B06D9FDF7D2FA22
:107A2C00162303600020BDE8F087DFF8E4C00D46A4
:107A3C002E4615F8014B14F80C7017F00807F7D107
:107A4C002D2C32D12C780127B51C002B5BD0102BA0
:107A5C0009D1302C07D12C7804F0DF04582C4DD1EF
:107A6C006C781023023507F1004808F1FF384FF00D
:107A7C00000CB8FBF3F9664603FB198AA4F1300E2F
:107A8C00BEF1090F16D87446A34224DDBCF1000FD9
:107A9C001EDBB1451CD301D1A24519DB06FB034605
:107AAC004FF0010C15F8014BE8E72B2C04BF2C7898
:107ABC00B51CCAE7A4F1410EBEF1190F01D8373C31
:107ACC00E2E7A4F1610EBEF1190F04D8573CDBE7D5
:107ADC004FF0FF3CE6E7BCF1000F05DA2223036010
:107AEC00464642B930469EE707B17642002AF9D0A5
:107AFC00BCF1000F00D0691E1160F3E73024002B9D
:107B0C00B1D10823AFE7302CA5D00A23ABE700BFD7
:107B1C007A800B0013460A46014602480068FFF7BC
:107B2C0077BF00BF84E503202DE9F843DFF8B88068
:107B3C000646D8F800001F460D46914600F056F850
:107B4C00254B1C6834B9254C1C60254B13B11B68A4
:107B5C00C4F8883063681F2B07DDD8F8000000F0EC
:107B6C0047F84FF0FF30BDE8F8834EB3D4F88800E7
:107B7C0088B91C4B23B9D8F8000000F038F8F0E7AE
:107B8C004FF48470FDF7E6F90028F4D00023C0E927
:107B9C004033C4F88800636840F8239001229A406F
:107BAC0000EB8301D0F800311343C0F80031022EF2
:107BBC00C1F8807002BFD0F804311343C0F804310F
:107BCC006368D8F800005A1C0233626044F82350F2
:107BDC0000F00EF80020C6E7F4E7032068E7032066
:107BEC0000000000614F0B00E8E503207047704770
:107BFC0070470000B9430B00F5430B001D440B000C
:107C0C0021440B000000000043616C6C206F6E205F
:107C1C0070757265207669727475616C004173734E
:107C2C00657274696F6E4661696C757265207372EA
:107C3C0063202626207372632D3E63616C6C626137
:107C4C00636B005B252E33662C252E33662C252E7C
:107C5C0031662C252E32665D005374617274696E28
:107C6C0067206554617065206C6F676765720000F2
:107C7C0000000000000000000000000000000000F8
:107C8C003D440B0065440B000000000000000000A8
:107C9C0069440B009D440B003D610B00E1620B003D
:107CAC006554617065204C6F670000000000000097
:107CBC00000000005F500B0055500B004B500B00A8
:107CCC0041500B0035500B0029500B00ED740B008C
:107CDC00F5740B001D500B0015500B000B500B00D6
:107CEC0001500B001D760B0025750B002D750B003C
:107CFC0000000000000000002D510B0023510B0070
:107D0C0019510B000F510B0003510B00F7500B00D6
:107D1C00ED740B00F5740B00EB500B00E3500B00F3
:107D2C00D9500B00CF500B001D760B0025750B00A6
:107D3C002D750B00776972696E67005379737465E2
:107D4C006D20736C65657020636F6E666967757204
:107D5C006174696F6E20697320696E76616C6964F9
:107D6C002E00000000000000000000007D540B00FD
:107D7C007F540B003D540B006F6E0B0062617564F9
:107D8C000053657269616C0053657269616C3100F6
:107D9C004A534F4E53747265616D4C6F6748616EF8
:107DAC00646C657200617070002530313075200094
:107DBC005D20002564002C200028293A2000205B3F
:107DCC0000636F6465203D20002569006465746163
:107DDC00696C73203D20000D0A006D0066006C6E0E
:107DEC0000666E007400636F64650064657461699D
:107DFC006C0000000000000000000000C1590B00E6
:107E0C00D9590B003D610B00E1620B000000000032
:107E1C0000000000ED590B00015A0B0019630B0018
:107E2C0047550B00000000000000000059550B00E6
:107E3C007F550B00A1600B0049550B0000000000A2
:107E4C000000000057550B008D550B0029590B00F5
:107E5C00AF550B0025592D256D2D25645425483A19
:107E6C00254D3A2553257A0061736374696D65005D
:107E7C000000000000000000F5660B00FB660B0024
:107E8C0039670B0009670B00F7660B000000000058
:107E9C00000000004D6C0B003D6C0B003F6C0B00A8
:107EAC000000000000000000336D0B009B6D0B0008
:107EBC00716D0B0051540B00636D0B00356D0B0095
:107ECC00456D0B00956D0B001D550B00556D0B0092
:107EDC002D6D0B00257500752530347800000000E1
:107EEC0000000000000000004F720B0045720B00F8
:107EFC003B720B00F1710B002F720B0023720B0005
:107F0C00ED740B00F5740B0017720B000F720B0065
:107F1C0005720B00FB710B001D760B0025750B0019
:107F2C002D750B00000000000000000089720B0092
:107F3C00F5720B00CD720B0051540B009D720B00AF
:107F4C00B9720B00AB720B00C7720B001D550B0006
:107F5C008B720B008F720B00000000000000000001
:107F6C0069730B00B3730B008B730B006B730B00FB
:107F7C0093730B009B730B00A3730B00AB730B0081
:107F8C001D550B0034E60320C4E6032008E703204C
:107F9C003CE603200000000000000000AD740B0064
:107FAC00B7740B00C1740B00CB740B00D5740B00B1
:107FBC00E1740B00ED740B00F5740B00FD740B00F9
:107FCC0009750B0011750B001B750B001D760B0052
:107FDC0025750B002D750B00005245454E54206D38
:107FEC00616C6C6F632073756363656564656400B5
:107FFC002F6D6E742F776F726B73706163652F7753
:10800C006F726B73706163652F4743432D31302D55
:10801C00706970656C696E652F6A656E6B696E73DD
:10802C002D4743432D31302D706970656C696E6539
:10803C002D34385F32303230313132345F313630BA
:10804C00363138303634312F7372632F6E65776C5E
:10805C0069622F6E65776C69622F6C6962632F732E
:10806C0074646C69622F72616E642E630000202050
:10807C0020202020202020282828282820202020CC
:10808C00202020202020202020202020202088108C
:10809C0010101010101010101010101010100404EC
:1080AC0004040404040404041010101010101041F3
:1080BC004141414141010101010101010101010164
:1080CC0001010101010101010110101010101042F9
:1080DC004242424242020202020202020202020234
:1080EC000202020202020202021010101020000012
:1080FC000000000000000000000000000000000074
:10810C000000000000000000000000000000000063
:10811C000000000000000000000000000000000053
:10812C000000000000000000000000000000000043
:10813C000000000000000000000000000000000033
:10814C000000000000000000000000000000000023
:10815C000000000000000000000000000000000013
:10816C000000000000000000000000000000000003
:10817C00B9490B0069500B0039510B007D520B00B3
:10818C002D540B002D610B008D640B00A9640B00AA
:0C819C0059720B0091740B0031760B003F
:1081A800040000001400000003000000474E5500C2
:1081B8002E9732D2E4F4E6BD73EB8BD923D0EA9440
:0481C80098CBCF1F62
:1081CC00AC7C0B00387E0B00507E0B00747E0B00D9
:1081DC0088E5032000000000000000000000000003
:1081EC000000000000000000000000000000000083
:1081FC000000000000000000000000000000000073
:10820C000000000000000000000000000000000062
:10821C000000000000000000000000000000000052
:10822C000000000000000000000000000000000042
:08823C0000000000F8E7032038
:048244000000000036
:10824E0000000102030405060708090A0B0C0D0EB7
:10825E000F101112131415161718191A1B1C1D1EA8
:04826E001F202800A5
:0482720078563412F4
:04000003B000401CED
:00000001FF
